:0400000042EF07F0D4
:1006000000253032643A253032643A253032640AAB
:100610000000010E1A6E17BE10EF03F013EF03F087
:10062000010E14EF03F0000E1D6E50C01BF051C000
:100630001CF01D50D8B41FEF03F021EF03F038EF8A
:1006400003F01B06D8A01C061D50D8A42AEF03F007
:100650002CEF03F032EF03F0000E196E2B0E186E24
:1006600036EF03F0000E196E2D0E186E18C01DF037
:10067000000E1F6E1F0E1E6E746A6BEF03F01E06D7
:10068000D8A01F061E50550FD96EDA6A16C001F0A9
:1006900017C002F0000E046E0A0E036EC7EC04F0E1
:1006A00001C007F002C008F0F4EC06F00750300F6C
:1006B000DF6E1A6A1B06D8A01C0616C001F017C010
:1006C00002F0000E046E0A0E036E66EC04F001C028
:1006D00016F002C017F01FBE76EF03F01F5008E1BE
:1006E0001E04D8A076EF03F078EF03F09DEF03F03F
:1006F00016501710D8A47FEF03F081EF03F03FEFFF
:1007000003F01A50D8A487EF03F089EF03F03FEF0E
:1007100003F01CBE94EF03F01C5008E11B04D8A0AA
:1007200094EF03F096EF03F09DEF03F054B29BEFCC
:1007300003F09DEF03F03FEF03F01D50D8B4A3EF9B
:1007400003F0A5EF03F0AEEF03F01E06D8A01F06DE
:100750001E50550FD96EDA6A1DC0DFFF15C00EF0AE
:100760001E50550F0F6E1BC010F01CC011F0C5ECD1
:1007700005F012002150D96EDA6ADFCFF6FF060EBF
:10078000F76E0800F550250AD8A4C9EF03F0CBEFA7
:1007900003F054EF04F02150D96EDA6ADF2A000E1C
:1007A000516E000E506E50C054F052685368276A64
:1007B000F4EF03F054822150D96EDA6ADF2AF4EFA5
:1007C00003F0010E276EF4EF03F02150D96EDA6AC0
:1007D000DFCFF6FF060EF76E0800F550300AD8B4EA
:1007E000DAEF03F0E1EF03F02750D8B4FAEF03F0AB
:1007F000FCEF03F0E5EF03F021C001F022C002F0AE
:1008000073EC05F001C050F002C051F051BE0DEF85
:1008100004F00BEF04F012EF04F05480506C511E02
:10082000D8B0512A2150D96EDA6ADF50286E28C01C
:10083000F6FF060EF76E0800F550640AD8B423EFF1
:1008400004F025EF04F033EF04F028C0F6FF060EA5
:10085000F76E0800F550690AD8A431EF04F033EFC1
:1008600004F04EEF04F02250D96EDA6A020EDF2651
:10087000DF5CD96EDA6ADECF23F0DECF24F02150C0
:10088000D96EDA6A2828DF6E20C015F023C016F072
:1008900024C017F009EC03F065EF04F02150D96E85
:1008A000DA6ADF2A65EF04F02150D96EDA6ADFCF09
:1008B000F6FF060EF76E0800F550016E026A20C0C2
:1008C00003F01EEC05F04EEF04F01200066A04BEC1
:1008D0006EEF04F06CEF04F074EF04F0036C041E90
:1008E000D8B0042A010E066E02BE7BEF04F079EF49
:1008F00004F081EF04F0016C021ED8B0022A010E50
:10090000061A000E086E000E076E03500410D8B4CD
:100910008CEF04F08EEF04F0B6EF04F0010E056EDC
:1009200096EF04F0D89003360436052A04AE9BEF08
:1009300004F09DEF04F092EF04F0D89007360836EB
:100940000350015C04500258D8A0A9EF04F0ABEFAB
:1009500004F0B0EF04F00350015E0450025A078027
:10096000D89004320332052E9DEF04F00650D8B41F
:10097000BCEF04F0BEEF04F0C2EF04F0076C081EF9
:10098000D8B0082A07C001F008C002F01200066AB9
:1009900002BECFEF04F0CDEF04F0D5EF04F0016C10
:1009A000021ED8B0022A010E066E04BEDCEF04F06F
:1009B000DAEF04F0E0EF04F0036C041ED8B0042A70
:1009C00003500410D8B4E7EF04F0E9EF04F00DEFA2
:1009D00005F0010E056EF1EF04F0D89003360436F1
:1009E000052A04AEF6EF04F0F8EF04F0EDEF04F0A2
:1009F0000350015C04500258D8A001EF05F003EF4A
:100A000005F007EF05F00350015E0450025AD8903C
:100A100004320332052EF8EF04F00650D8B413EF79
:100A200005F015EF05F019EF05F0016C021ED8B0C6
:100A3000022A01C001F002C002F012000350D8B433
:100A400024EF05F026EF05F02EEF05F00350D8A4B3
:100A50002CEF05F02EEF05F033EF05F0015074ECAC
:100A600007F072EF05F00350D96EDA6A090ED92645
:100A7000DE50DE10D8B43FEF05F041EF05F05AEF3D
:100A800005F00350D96EDA6A090ED9260350E16EDB
:100A9000E26A020EE126DE50E65CE650800A086E4D
:100AA000DE50800A0858D8B058EF05F05AEF05F02C
:100AB00072EF05F00350D96EDA6A020ED926DF50C4
:100AC000046E0350D96EDA6ADF500424D96EDA6AF4
:100AD00001C0DFFF0350D96EDA6A020ED926DE2A82
:100AE000000EDD221200000E076E000E066E015091
:100AF000D96EDA6ADFCFF6FF060EF76E0800F55002
:100B00002A0AD8A486EF05F088EF05F0ADEF05F0CE
:100B10000150D96EDA6ADF2A0250D96EDA6A020E03
:100B2000DF26DF5CD96EDA6ADECF06F0DECF07F0B3
:100B3000C0EF05F00A0E0602F3CF03F0F4CF04F085
:100B40000702F350042605500324066E000E04200D
:100B5000076E0150D96EDA6ADF2A0150D96EDA6A5F
:100B6000DFCFF6FF060EF76E0800F550D00F056ECA
:100B7000090E0564BEEF05F0C0EF05F09AEF05F031
:100B800006C001F007C002F0120054A0CAEF05F041
:100B9000CCEF05F0D2EF05F00FC009F00EC00AF05F
:100BA000A0EC06F011BED9EF05F0D7EF05F0DDEFB0
:100BB00005F0000E116E000E106E000E146E000E89
:100BC000136EEDEF05F0000E026E200E016E0EC0EA
:100BD00003F01EEC05F0134A142A1050135C145055
:100BE000800A126E1150800A1258D8A0FAEF05F050
:100BF000FCEF05F0E3EF05F054B001EF06F003EF72
:100C000006F009EF06F00FC009F00EC00AF0A0ECE4
:100C100006F012006CEC07F0D00E34EC07F0000E7A
:100C200034EC07F070EC07F0D10E34EC07F006500E
:100C3000D96EDA6A010EBEEC06F04DEC07F0DF6EFD
:100C40000550D96EDA6A010EBEEC06F04DEC07F0E5
:100C5000DF6E0450D96EDA6A000EBEEC06F04DEC81
:100C600007F0DF6E68EC07F0120052EF06F0020E9C
:100C7000056E860E046E990EE82EFED7042EFCD764
:100C8000052EFAD700000350D96EDA6ADF500EEC59
:100C900007F0032A270E046EF50EE82EFED7042E69
:100CA000FCD700000350D96EDA6ADF50D8A45BEF9E
:100CB00006F05DEF06F037EF06F0120061EC07F08A
:100CC00058EC07F04D0E046E4E0E056E4F0E066E7C
:100CD0000AEC06F0410E2D6E010E2E6E4DC02FF067
:100CE000306A4EC031F0326A4FC033F0346ADAEC09
:100CF00006F0410E036E35EC06F062EF06F000EFF1
:100D000000F02AC02CF08DEF06F029C020F02C0E48
:100D1000216E2BC022F0BAEC03F02CC0F6FF060EB9
:100D2000F76E0800F5500009D8A499EF06F09BEF84
:100D300006F085EF06F0000E2A6E000E296E1200F6
:100D4000000E0D6E000E0C6EAFEF06F00BC001F042
:100D5000026A0AC003F01EEC05F00C4A0D2A095085
:100D60000C24D96EDA6ADF500B6E0B50D8A4BBEF9F
:100D700006F0BDEF06F0A6EF06F01200026E21ECC1
:100D800007F0C586C7A0C7EF06F0C9EF06F0C2EFAF
:100D900006F0C9CF03F021EC07F00250D8B4D3EF2E
:100DA00006F0D6EF06F0C58AD7EF06F0C59AC588DB
:100DB000035012002F0E356E2DC036F0000E396E26
:100DC000000E386E000E406E000E3F6E360E296E1D
:100DD0002EC02AF0350E2B6E81EC06F02D503824F3
:100DE000D96EDA6ADF6A120008BEF9EF06F0FBEF8F
:100DF00006F001EF07F007C007F008C008F00DEF9C
:100E000007F007C009F008C00AF0091E0A1E094AC7
:100E10000A2A09C007F00AC008F01200026EACA24C
:100E200014EF07F016EF07F00FEF07F002C0ADFF69
:100E3000040E016EE40EE82EFED7012EFCD700D082
:100E40001200C5CF01F01F0E0116D8A42AEF07F03B
:100E50002CEF07F021EF07F0C7B431EF07F033EFC5
:100E600007F021EF07F01200026E21EC07F002C03C
:100E7000C9FF9EA63EEF07F040EF07F039EF07F0FD
:100E80009E96120000EE50F0250EEE6AE806FDE197
:100E9000000EF86E00015EEF06F0026E02C001F077
:100EA0000F0E011602380F0B0A0DF3500124120029
:100EB000280EC66EC56A1D0EC86EC76A82888286F5
:100EC00012004D0EAF6EAC84AC98AB8EAC8A1200A3
:100ED00021EC07F0C584120021EC07F0C580120058
:0A0EE00021EC07F0C5821200120099
:00000001FF
