:0400000038EF06F0DF
:10080000003132333435363738392A30232020202E
:100810002020202020202020202020202000456E85
:100820007465722050617373776F72643A0041632C
:1008300063657373204772616E746564004163631E
:100840006573732064656E6965640054696D653A0B
:09085000200054696D653A0000B6
:10085A00010EF66E080EF76E20EE02F00B0E09007E
:10086A00F5CFDEFFE806FBE20E6A8A808A828A8476
:10087A008A864CEF04F08A905FEF04F08A925FEF69
:10088A0004F08A945FEF04F08A965FEF04F00E504A
:10089A00000AD8B440EF04F0010AD8B443EF04F0D8
:1008AA00030AD8B446EF04F0010AD8B449EF04F0B9
:1008BA005FEF04F0100EE82EFED700D081BA68EF81
:1008CA0004F06AEF04F081EF04F0820E016EDE0E8E
:1008DA00E82EFED7012EFCD781AA76EF04F078EF36
:1008EA0004F071EF04F00E50030DF350020FD96EAD
:1008FA00DA6ADF50CFEF04F081BC86EF04F088EFAC
:10090A0004F0A3EF04F0820E016EDE0EE82EFED78D
:10091A00012EFCD781AC94EF04F096EF04F08FEF30
:10092A0004F00E50030DF3CF01F0010E0126015021
:10093A00020FD96EDA6ADF50CFEF04F081BEA8EF5A
:10094A0004F0AAEF04F0C5EF04F0820E016EDE0E89
:10095A00E82EFED7012EFCD781AEB6EF04F0B8EF31
:10096A0004F0B1EF04F00E50030DF3CF01F0020EC4
:10097A0001260150020FD96EDA6ADF50CFEF04F078
:10098A000E2A030E0E64CCEF04F0CEEF04F03AEF19
:10099A0004F0000E12002DEC04F0116E1150D8B4C0
:1009AA00D9EF04F0DBEF04F05CEF05F02A0E111822
:1009BA00D8A4E2EF04F0E4EF04F0F7EF04F02E6AB3
:1009CA002D6AC00E66EC06F00D0E026E0250D8A417
:1009DA00080E036EE6EC05F0C00E66EC06F0000E9B
:1009EA005CEF05F0230E1118D8A4FEEF04F000EF17
:1009FA0005F048EF05F02E502F0FD96EDA6ADF6A3C
:100A0A00C00E66EC06F02F0E016E340E026EB7ECC5
:100A1A0005F001500210D8A415EF05F017EF05F004
:100A2A0022EF05F02E0E026E0250D8A4080E036EB5
:100A3A00E6EC05F0010E5CEF05F03D0E026E025089
:100A4A00D8A4080E036EE6EC05F0330E106EBB0E4A
:100A5A000F6EE00EE82EFED70F2EFCD7102EFAD717
:100A6A002E6A2D6AC00E66EC06F00D0E026E02505A
:100A7A00D8A4080E036EE6EC05F0C00E66EC06F08C
:100A8A00000E5CEF05F0040E2E604EEF05F050EFFD
:100A9A0005F0F4EF04F02E502F0FD96EDA6A11C068
:100AAA00DFFF2E2A2A0E92EC06F0F4EF04F0120071
:100ABA00949453EC06F080EC06F08AEC06F0800E73
:100ACA0066EC06F01E0E026E0250D8A4080E036EE3
:100ADA00E6EC05F0C00E66EC06F08B94D0EC04F060
:100AEA002C6E2C50D8B47CEF05F07EEF05F073EF36
:100AFA0005F08B84030E136E8A0E126E560EE82EC4
:100B0A00FED7122EFCD7132EFAD7010E66EC06F08A
:100B1A00800E66EC06F0520E026E0250D8A4080E41
:100B2A00036EE6EC05F0860E66EC06F0860E66ECC1
:100B3A0006F0200E016E15EC06F0200E026E036A16
:100B4A00E6EC05F00D0E136EAF0E126EB60EE82E21
:100B5A00FED7122EFCD7132EFAD700D098EF05F045
:100B6A0000EF00F0BBEF05F0012A022A0250D96E0D
:100B7A00DA6A0150E16EE26ADE50E618D8A4C8EFDC
:100B8A0005F0CAEF05F0D5EF05F00150D96EDA6A23
:100B9A00DF50D8A4D3EF05F0D5EF05F0B9EF05F093
:100BAA000150D96EDA6ADF50036E0250D96EDA6AE2
:100BBA00DF50046E0450035C016E026AD8A002067C
:100BCA001200FCEF05F002C0F6FF03C0F7FFF86A57
:100BDA00070EF76403D00800F55005D0F6CFE9FFF9
:100BEA00F7CFEAFFEF5092EC06F0024A032A02C05E
:100BFA00F6FF03C0F7FFF86A070EF76403D0080090
:100C0A00F55005D0F6CFE9FFF7CFEAFFEF5000091C
:100C1A00D8A412EF06F014EF06F0E8EF05F0120080
:100C2A00000E036E000E026E9EAA1EEF06F020EF63
:100C3A0006F019EF06F0AECF04F00A0E0418D8A495
:100C4A0029EF06F02BEF06F02DEF06F037EF06F04E
:100C5A0001500224D96EDA6A04C0DFFF024A032A6D
:100C6A0019EF06F01200320EF66E0D0EF76E000E38
:100C7A00F86E00EE34F010EE05F00900F5CFEEFF45
:100C8A00E550E150FAE100EE2DF0070EEE6AE806B3
:100C9A00FDE1000EF86E00015DEF05F0956A949093
:100CAA009492380E66EC06F00C0E66EC06F0010E15
:100CBA0066EC06F0060E66EC06F0800E66EC06F0B0
:100CCA001200026E8B9002C08CFF8B82070E016E9F
:100CDA007D0EE82EFED7012EFCD700008B92120063
:100CEA00016EACA27BEF06F07DEF06F076EF06F020
:100CFA0001C0ADFF12009390939293949396938AB6
:100D0A00938C938EF19E8A6812004D0EAF6EAC845E
:100D1A00AC98AB8EAB88AC8A1200016E8B8001C096
:0D0D2A008CFF8B828B92120031323334002B
:00000001FF
