:0400000070EF04F0A9
:10080000003132333435363738392A30232020202E
:100810002020202020202020202020202000416394
:1008200063657373204772616E746564004163632E
:100830006573732064656E696564000034EF04F0CD
:1008400002C0F6FF03C0F7FFF86A070EF76403D093
:100850000800F55005D0F6CFE9FFF7CFEAFFEF50DB
:10086000CCEC04F0024A032A02C0F6FF03C0F7FFF3
:10087000F86A070EF76403D00800F55005D0F6CFEC
:10088000E9FFF7CFEAFFEF500009D8A44AEF04F0E0
:100890004CEF04F020EF04F01200000E036E000E87
:1008A000026E9EAA56EF04F058EF04F051EF04F0E8
:1008B000AECF04F00A0E0418D8A461EF04F063EF81
:1008C00004F065EF04F06FEF04F001500224D96EDC
:1008D000DA6A04C0DFFF024A032A51EF04F0120073
:1008E000A60EF66E090EF76E000EF86E00EE19F009
:1008F00010EE05F00900F5CFEEFFE550E150FAE10A
:1009000000EE11F0080EEE6AE806FDE1000EF86E4A
:1009100000018BEF04F0C4EC04F0A2EC04F0800EB4
:10092000B5EC04F0050E016E4DEC04F0050E026E00
:10093000036A1EEC04F0800EB5EC04F092EF04F0B4
:1009400000EF00F0956A94909492380EB5EC04F0A4
:100950000C0EB5EC04F0010EB5EC04F0060EB5EC8F
:1009600004F0800EB5EC04F01200026E8B9002C011
:100970008CFF8B82070E016E7D0EE82EFED7012EB6
:10098000FCD700008B9212004D0EAF6EAC84AC9879
:10099000AB8EAB88AC8A1200016E8B8001C08CFFDD
:0B09A0008B828B921200313233340046
:00000001FF
